{
  "contractName": "Adoption",
  "abi": [
    {
      "constant": true,
      "inputs": [
        {
          "internalType": "uint256",
          "name": "",
          "type": "uint256"
        }
      ],
      "name": "adopters",
      "outputs": [
        {
          "internalType": "address",
          "name": "",
          "type": "address"
        }
      ],
      "payable": false,
      "stateMutability": "view",
      "type": "function"
    },
    {
      "constant": true,
      "inputs": [
        {
          "internalType": "uint256",
          "name": "",
          "type": "uint256"
        }
      ],
      "name": "nothinggggggg",
      "outputs": [
        {
          "internalType": "address",
          "name": "",
          "type": "address"
        }
      ],
      "payable": false,
      "stateMutability": "view",
      "type": "function"
    },
    {
      "constant": false,
      "inputs": [],
      "name": "invest",
      "outputs": [],
      "payable": false,
      "stateMutability": "nonpayable",
      "type": "function"
    },
    {
      "constant": true,
      "inputs": [],
      "name": "balanceOf",
      "outputs": [
        {
          "internalType": "uint256",
          "name": "",
          "type": "uint256"
        }
      ],
      "payable": false,
      "stateMutability": "view",
      "type": "function"
    },
    {
      "constant": false,
      "inputs": [
        {
          "internalType": "uint256",
          "name": "petId",
          "type": "uint256"
        }
      ],
      "name": "adopt",
      "outputs": [
        {
          "internalType": "uint256",
          "name": "",
          "type": "uint256"
        }
      ],
      "payable": false,
      "stateMutability": "nonpayable",
      "type": "function"
    },
    {
      "constant": true,
      "inputs": [],
      "name": "getAdopters",
      "outputs": [
        {
          "internalType": "address[16]",
          "name": "",
          "type": "address[16]"
        }
      ],
      "payable": false,
      "stateMutability": "view",
      "type": "function"
    }
  ],
  "bytecode": "0x608060405234801561001057600080fd5b50610449806100206000396000f3fe608060405234801561001057600080fd5b50600436106100625760003560e01c80633de4eb171461006757806343ae80d3146100ad578063722713f71461011b5780638588b2c514610139578063b0d9e2261461017b578063e8b5e51f146101e9575b600080fd5b61006f6101f3565b6040518082601060200280838360005b8381101561009a57808201518184015260208101905061007f565b5050505090500191505060405180910390f35b6100d9600480360360208110156100c357600080fd5b8101908080359060200190929190505050610274565b604051808273ffffffffffffffffffffffffffffffffffffffff1673ffffffffffffffffffffffffffffffffffffffff16815260200191505060405180910390f35b6101236102a7565b6040518082815260200191505060405180910390f35b6101656004803603602081101561014f57600080fd5b81019080803590602001909291905050506102af565b6040518082815260200191505060405180910390f35b6101a76004803603602081101561019157600080fd5b810190808035906020019092919050505061036e565b604051808273ffffffffffffffffffffffffffffffffffffffff1673ffffffffffffffffffffffffffffffffffffffff16815260200191505060405180910390f35b6101f16103a1565b005b6101fb6103f1565b600060108060200260405190810160405280929190826010801561026a576020028201915b8160009054906101000a900473ffffffffffffffffffffffffffffffffffffffff1673ffffffffffffffffffffffffffffffffffffffff1681526020019060010190808311610220575b5050505050905090565b6000816010811061028157fe5b016000915054906101000a900473ffffffffffffffffffffffffffffffffffffffff1681565b600047905090565b60008082101580156102c25750600f8211155b6102cb57600080fd5b33600083601081106102d957fe5b0160006101000a81548173ffffffffffffffffffffffffffffffffffffffff021916908373ffffffffffffffffffffffffffffffffffffffff16021790555060008060016010811061032757fe5b0160006101000a81548173ffffffffffffffffffffffffffffffffffffffff021916908373ffffffffffffffffffffffffffffffffffffffff160217905550819050919050565b6010816010811061037b57fe5b016000915054906101000a900473ffffffffffffffffffffffffffffffffffffffff1681565b6000806000601081106103b057fe5b0160006101000a81548173ffffffffffffffffffffffffffffffffffffffff021916908373ffffffffffffffffffffffffffffffffffffffff160217905550565b60405180610200016040528060109060208202803883398082019150509050509056fea265627a7a72315820a4d9810948fc0b30b90a2a77d5d8da28c739ba64db1039c99cd8355a769a84b964736f6c63430005100032",
  "source": "pragma solidity ^0.5.0;\r\n\r\ncontract Adoption {\r\naddress[16] public adopters;\r\naddress[16] public nothinggggggg;\r\nfunction invest() public  { \r\n\r\nadopters[0] = 0x0000000000000000000000000000000000000000; } \r\n\r\nfunction balanceOf() external view returns (uint){\r\nreturn address(this).balance; }\r\n\r\nfunction adopt(uint petId) public returns (uint) {\r\n  require(petId >= 0 && petId <= 15);\r\n\r\n  adopters[petId] = msg.sender;\r\nadopters[1] = 0x0000000000000000000000000000000000000000;\r\n  return petId;\r\n}\r\nfunction getAdopters() public view returns (address[16] memory) {\r\n  return adopters;\r\n}\r\n\r\n}",
  "sourcePath": "D:/Hajer/Blockchain/pet-shop-tutorial/contracts/Adoption.sol",
  "compiler": {
    "name": "solc",
    "version": "0.5.16+commit.9c3226ce.Emscripten.clang"
  },
  "schemaVersion": "3.4.1",
  "updatedAt": "2021-07-26T11:56:07.414Z",
  "networkType": "ethereum",
  "devdoc": {
    "methods": {}
  },
  "userdoc": {
    "methods": {}
  }
}