{
  "contractName": "Adoption",
  "abi": [
    {
      "inputs": [
        {
          "internalType": "uint256",
          "name": "",
          "type": "uint256"
        }
      ],
      "name": "adopters",
      "outputs": [
        {
          "internalType": "address",
          "name": "",
          "type": "address"
        }
      ],
      "stateMutability": "view",
      "type": "function",
      "constant": true
    },
    {
      "inputs": [
        {
          "internalType": "uint256",
          "name": "",
          "type": "uint256"
        }
      ],
      "name": "consents",
      "outputs": [
        {
          "internalType": "address",
          "name": "",
          "type": "address"
        }
      ],
      "stateMutability": "view",
      "type": "function",
      "constant": true
    },
    {
      "inputs": [],
      "name": "shit",
      "outputs": [
        {
          "internalType": "int256",
          "name": "",
          "type": "int256"
        }
      ],
      "stateMutability": "view",
      "type": "function",
      "constant": true
    },
    {
      "inputs": [
        {
          "internalType": "uint256",
          "name": "petId",
          "type": "uint256"
        }
      ],
      "name": "adopt",
      "outputs": [
        {
          "internalType": "uint256",
          "name": "",
          "type": "uint256"
        }
      ],
      "stateMutability": "nonpayable",
      "type": "function"
    },
    {
      "inputs": [],
      "name": "getAdopters",
      "outputs": [
        {
          "internalType": "address[16]",
          "name": "",
          "type": "address[16]"
        }
      ],
      "stateMutability": "view",
      "type": "function",
      "constant": true
    }
  ],
  "bytecode": "0x608060405234801561001057600080fd5b5061056c806100206000396000f3fe608060405234801561001057600080fd5b50600436106100575760003560e01c80633de4eb171461005c57806343ae80d31461007a5780638588b2c5146100aa57806398335122146100da578063d557d53a146100f8575b600080fd5b610064610128565b604051610071919061045a565b60405180910390f35b610094600480360381019061008f919061036b565b6101a9565b6040516100a1919061043f565b60405180910390f35b6100c460048036038101906100bf919061036b565b6101df565b6040516100d19190610491565b60405180910390f35b6100e26102f7565b6040516100ef9190610476565b60405180910390f35b610112600480360381019061010d919061036b565b6102fd565b60405161011f919061043f565b60405180910390f35b610130610333565b600060108060200260405190810160405280929190826010801561019f576020028201915b8160009054906101000a900473ffffffffffffffffffffffffffffffffffffffff1673ffffffffffffffffffffffffffffffffffffffff1681526020019060010190808311610155575b5050505050905090565b600081601081106101b957600080fd5b016000915054906101000a900473ffffffffffffffffffffffffffffffffffffffff1681565b60008082101580156101f25750600f8211155b6101fb57600080fd5b3360008360108110610236577f4e487b7100000000000000000000000000000000000000000000000000000000600052603260045260246000fd5b0160006101000a81548173ffffffffffffffffffffffffffffffffffffffff021916908373ffffffffffffffffffffffffffffffffffffffff16021790555033601083601081106102b0577f4e487b7100000000000000000000000000000000000000000000000000000000600052603260045260246000fd5b0160006101000a81548173ffffffffffffffffffffffffffffffffffffffff021916908373ffffffffffffffffffffffffffffffffffffffff160217905550819050919050565b60205481565b6010816010811061030d57600080fd5b016000915054906101000a900473ffffffffffffffffffffffffffffffffffffffff1681565b604051806102000160405280601090602082028036833780820191505090505090565b6000813590506103658161051f565b92915050565b60006020828403121561037d57600080fd5b600061038b84828501610356565b91505092915050565b60006103a083836103ac565b60208301905092915050565b6103b5816104d9565b82525050565b6103c4816104d9565b82525050565b6103d3816104b6565b6103dd81846104ce565b92506103e8826104ac565b8060005b838110156104195781516104008782610394565b965061040b836104c1565b9250506001810190506103ec565b505050505050565b61042a816104eb565b82525050565b61043981610515565b82525050565b600060208201905061045460008301846103bb565b92915050565b60006102008201905061047060008301846103ca565b92915050565b600060208201905061048b6000830184610421565b92915050565b60006020820190506104a66000830184610430565b92915050565b6000819050919050565b600060109050919050565b6000602082019050919050565b600081905092915050565b60006104e4826104f5565b9050919050565b6000819050919050565b600073ffffffffffffffffffffffffffffffffffffffff82169050919050565b6000819050919050565b61052881610515565b811461053357600080fd5b5056fea2646970667358221220d4db35c9808485a45de21fc3f5e10b028496c0b230fa2b232372962a45691d4964736f6c63430008000033",
  "immutableReferences": {},
  "source": "pragma solidity ^0.8.0;\r\n\r\ncontract Adoption {\r\naddress[16] public adopters;\r\naddress[16] public consents;\r\nint public shit;\r\nint abcd;\r\nint private hjfbds;\r\n// Adopting a pet\r\n\r\nfunction adopt(uint petId) public returns (uint) {\r\n  require(petId >= 0 && petId <= 15);\r\n\r\n  adopters[petId] = msg.sender;\r\n  consents[petId] = msg.sender;\r\n\r\n\r\n  return petId;\r\n}\r\n// Retrieving the adopters\r\nfunction getAdopters() public view returns (address[16] memory) {\r\n  return adopters;\r\n}\r\n}",
  "sourcePath": "D:/Hajer/Blockchain/n/pet-shop-tutorial/contracts/Adoption.sol",
  "compiler": {
    "name": "solc",
    "version": "0.8.0+commit.c7dfd78e.Emscripten.clang"
  },
  "schemaVersion": "3.4.1",
  "updatedAt": "2021-08-06T12:01:01.182Z",
  "networkType": "ethereum",
  "devdoc": {
    "kind": "dev",
    "methods": {},
    "version": 1
  },
  "userdoc": {
    "kind": "user",
    "methods": {},
    "version": 1
  }
}